:020000040808EA
:1000000000000808C4170808000006000A000501DF
:080010000402D4070000000007
:040018008815080837
:10001C0009480A4908B5884205D0094A824202D0EB
:10002C00121A01F04DFA0748074A0021121A01F082
:10003C0055FA064808BD00BF000000203417080818
:10004C00680000206800002060050020600500208A
:10005C0070B500F0BFFB0025054E064CA41BA40890
:10006C00A54200D170BD56F8043B98470135F7E71F
:10007C00041708082417080800F016B808B500F093
:10008C0043F8BDE8084000F067BB00F001BA00F08F
:10009C00FFB900F005BA0078B0FA80F0400970475B
:1000AC0001230370704700001FB500F01BFF4FF4D5
:1000BC00E13100F0FDFE0121072001F05FF90F4B4B
:1000CC000F4A1B780F498DF8003002A83C2300F032
:1000DC00D9FC039C7CB16368013B63605BB923680A
:1000EC0020469B689847A368013BA3601BB9236813
:1000FC002046DB68984704B010BD00BF6C000020A0
:10010C009C150808A915080808B50121072001F05D
:10011C0046F9642000F0ACFA0021072001F03FF909
:10012C00642000F0A5FA00F0DDFEBDE808400149AE
:10013C0000F047BAB11508080022024B1A7000F003
:10014C0003B800BF6C00002008B5024B1B681B688D
:10015C00019308BDB001040808B5024B1B689B68ED
:10016C00019308BDB001040808B5024B1B68DB689D
:10017C00019308BDB001040808B5024B1B681B694C
:10018C00019308BDB001040808B5024B1B685B68FD
:10019C00019308BD9C01040808B5024B1B685B6900
:1001AC00019308BD9C01040808B5024B1B685B6CED
:1001BC00019308BDD001040808B5024B1B689B6C69
:1001CC00019308BDD001040808B5024B1B689B695C
:1001DC00019308BDC401040808B5024B1B685B6A97
:1001EC00019308BDC401040808B5024B1B689B6A47
:1001FC00019308BDC401040808B5024B1B68DB6AF7
:10020C00019308BDC401040808B5024B1B681B6BA5
:10021C00019308BDC401040808B5024B1B685B6B55
:10022C00019308BDC401040808B5024B1B689B6B05
:10023C00019308BDC401040808B5024B1B681B6C74
:10024C00019308BDC401040808B5024B1B681B6A66
:10025C00019308BDAC01040808B5024B1B685B6A2E
:10026C00019308BDAC01040808B5024B1B689B6ADE
:10027C00019308BDAC01040808B5024B1B68DB6A8E
:10028C00019308BDAC01040808B5024B1B681B6B3D
:10029C00019308BDAC01040808B5024B1B685B6BED
:1002AC00019308BDAC01040808B5024B1B681B6C1C
:1002BC00019308BDAC01040808B5024B1B68DB694F
:1002CC00019308BDB401040808B5024B1B681B6AF6
:1002DC00019308BDB401040808B5024B1B68DB6B25
:1002EC00019308BD2000060808B5024B1B681B686B
:1002FC00019308BD1C00060808B5024B1B685B681F
:10030C00019308BD1C00060808B5024B1B681B694D
:10031C00019308BD1C00060808B5024B1B685B69FD
:10032C00019308BD1C00060808B5024B1B689B69AD
:10033C00019308BD1C00060808B5024B1B68DB695D
:10034C00019308BD1C00060808B5024B1B681B6A0C
:10035C00019308BD1C00060808B5024B1B685B68BE
:10036C00019308BDA401040808B5024B1B685B6926
:10037C00019308BDA401040808B5024B1B68DB6C93
:10038C00019308BDA401040808B5024B1B685B6D02
:10039C00019308BDA401040808B5034B1B68D3F8EE
:1003AC009030019308BD0000A401040808B5034B6C
:1003BC001B68D3F89C30019308BD0000A40104080D
:1003CC0008B5024B1B685B68019308BDC8010408A3
:1003DC0008B5024B1B689B68019308BDC801040853
:1003EC0008B5024B1B68DB68019308BDC801040803
:1003FC0008B5024B1B681B69019308BDC8010408B2
:10040C0008B5024B1B685B69019308BDC801040861
:10041C0008B5024B1B689B69019308BDC801040811
:10042C0008B5024B1B68DB69019308BDC8010408C1
:10043C0008B5024B1B681B6A019308BDC801040870
:10044C0008B5024B1B681B6B019308BDC80104085F
:10045C0008B5024B1B685B6B019308BDC80104080F
:10046C0008B5024B1B685B69019308BDCC010408FD
:10047C0008B5024B1B681B6A019308BDCC0104082C
:10048C0008B5024B1B68DB6B019308BDCC0104085B
:10049C0008B5024B1B681B68019308BDA00104083A
:1004AC0008B5024B1B685B68019308BDA0010408EA
:1004BC0008B5024B1B68DB6A019308BDA001040858
:1004CC0008B5024B1B681B6B019308BDA001040807
:1004DC0008B5024B1B685B6C019308BDA0010408B6
:1004EC0070B5002604460D4640F8086FFFF75CFE19
:1004FC0028462570FFF7E0FE2046666070BD10B5FB
:10050C000446006818B1FFF7CBFF0023236010BD31
:10051C0010B50446FFF7F3FF204610BD0222002061
:10052C0010B5084B084C1A60084B2060A080A071D5
:10053C00A360FFF711FF2046BDE81040044A0549AF
:10054C0000F0A4BF7C000020700000200000FFFF22
:10055C00680000201D050808F8B506460D46002465
:10056C008F18BD420CD0336830469B6815F8011BC0
:10057C009847031E01DB1C44F3E7002C08BF1C4604
:10058C002046F8BD70B505460C46084649B100F04A
:10059C00ECFF2B68024621462846BDE87040DB681C
:1005AC00184770BD03689B68184738B50D21054680
:1005BC00FFF7F8FF0A2104462846FFF7F3FF204413
:1005CC0038BD38B50546FFF7DDFF04462846FFF772
:1005DC00ECFF204438BD0023012A98BF0A2230B515
:1005EC008BB00C468DF8243009A92546B4FBF2F4E7
:1005FC0004FB1253DBB2092B94BF30333733DBB21D
:10060C00AA4201F8013DF0D9FFF7BCFF0BB030BD99
:10061C0038B5046805467CB16368013B63605BB91F
:10062C00236820469B689847A368013BA3601BB9CD
:10063C0023682046DB689847284638BD0B68036062
:10064C0013B15A6801325A6070470000014B024ADC
:10065C001A60704780000020BE150808024B1A680B
:10066C00024B1A60704700BF00000020840000207D
:10067C000021FFF779BE10B58368044613B103223D
:10068C0001469847204610BD10B50446FFF7F3FF0E
:10069C00204610BD13B56C460B46024603C884E8D1
:1006AC00030093E8030082E8030094E8030083E866
:1006BC00030002B010BD000000230348034A0449A4
:1006CC00836000F0E3BE00BF8800002068000020BB
:1006DC0095060808014B1860704700BF0400002005
:1006EC0008B5174B43B100F0FDFB03681B69984735
:1006FC00002801DDAFF30080124B43B100F014FD74
:10070C0003681B699847002801DDAFF300800E4B8E
:10071C000BB1AFF300800D4B0BB1AFF300800C4B62
:10072C000BB1AFF300800B4B43B100F019FC036825
:10073C001B699847002801DDAFF3008008BD00BF9E
:10074C00000000000000000000000000000000009D
:10075C00000000000000000008B5FFF7C1FFFFF724
:10076C001BFD014B186008BD3C0500200248034AE4
:10077C000349121A00F0A4BE00400240044002409B
:10078C0030170808002307B51A466FF0770100935D
:10079C00FFF70CFE03B05DF804FB000007B54388BF
:1007AC000A2B08D0502B0BD1094B1B684BB103B053
:1007BC005DF804EB1847FFF7E5FF03B05DF804FBA9
:1007CC0000231A466FF077010093FFF7EFFDF4E773
:1007DC009C00002038B5124C00211248FFF778FE1F
:1007EC00114D2368AB420CBF012200220F4B1A7033
:1007FC0002D0FFF7BBFF2560FFF7C6FC044600F0F4
:10080C0075FE0B4B13B12046AFF300800021084856
:10081C00FFF736FEBDE8384000210648FFF7BCBDA7
:10082C0000400240E10608081E1C279A9800002090
:10083C0000000000A907080870470020704710B599
:10084C000446102100F027FE204610BD08B5FFF726
:10085C00F6FF08BD002230B54FF69C740260848010
:10086C008D888C800C68858004600A6030BD10B562
:10087C0004460068FFF714FE204610BD38B5C46866
:10088C00F4B12378022B03D104F10C00FFF7EFFF36
:10089C00656835B12846FFF7EEFE1021284600F0BA
:1008AC00FAFDA56835B12846FFF7E5FE102128466C
:1008BC0000F0F1FD2046BDE83840142100F0EBBDFE
:1008CC0038BD73B50E46044656F8043B0D4601A8D8
:1008DC0031460093FFF7B2FE009B019A2360002380
:1008EC00626001A801930093FFF792FE3046FFF778
:1008FC008FFE2846082100F0CEFD204602B070BDC8
:10090C00826810B50AB900F0CAFDC368BDE8104092
:10091C00184708B5006800F11001FFF7F1FF08BD9A
:10092C00826810B50AB900F0BAFDC368BDE8104082
:10093C00184708B5006800F11001FFF7F1FF08BD7A
:10094C0038B500230446036010200D46FFF79DFBCD
:10095C0028B10123C0E90133024BC560036020605C
:10096C00204638BDE815080838B5002383608B682D
:10097C0004460D462BB102229847EB68E360AB6846
:10098C00A360204638BD0000F0B589B00468684605
:10099C00FFF760FF4FF00203D4E84F2F002A03D17A
:1009AC00C4E8413F0029F7D125D104F10C05694673
:1009BC002846FFF74FFF0123BFF35B8F63700020C6
:1009CC00BFF35B8F04F1080353E8006F43E80002A8
:1009DC00002AF9D1BFF35B8F6EB1FFF7CDFC78B174
:1009EC0029463046FFF78CFF3046FFF744FE1021B6
:1009FC00304600F050FD6846FFF739FF09B0F0BDF6
:100A0C00314602A8FFF7B0FFE068B4F9105008B106
:100A1C0000F090FD06901020ADF81C50FFF735FB50
:100A2C000546E8B1002787601820FFF72EFB044627
:100A3C0088B10146876002A8FFF72CFE049BA268D0
:100A4C00A360059B0492E26806A9E36004F1100020
:100A5C000592FFF7FFFE084B2C60EB60074BAB6079
:100A6C0006A8FFF704FF02A8FFF705FE002229469F
:100A7C000348FFF789FCB7E71F090808B50B0808FE
:100A8C00851108082DE9F0478AB005460C46174633
:100A9C0098469DF84890FFF7E3FC07AE824638BBBA
:100AAC004FF62E73059005A93046ADF81830FFF7B8
:100ABC00D1FE1420FFF7E9FA044648B10223037073
:100ACC000123C0E901AA437031460C30FFF7C2FE86
:100ADC002846214640F8044BFFF732FF3046FFF71B
:100AEC00C6FE05A8FFF7C3FE28460AB0BDE8F0878E
:100AFC000C234FF0000A1420CDE908AA0793FFF746
:100B0C00C4FA014628B1C0E901AA80F800A080F817
:100B1C0001A004A80391FFF713FF224B08200893B0
:100B2C00FFF7B3FA824628B1039B04A940F8043BB3
:100B3C00FFF784FD42463946204600965FFA89F35A
:100B4C00CDF824A0FFF794FCB8B9039B5B7803F0B5
:100B5C00FF0293B94FF69C7305A903A80592ADF853
:100B6C001830FFF711FF05A8FFF781FE05A80999BA
:100B7C00FFF7A7FE06A8FFF74BFD039B04A906A8E9
:100B8C000593FFF75BFD059B069A2B6000236A60BB
:100B9C0006A806930593FFF73BFD04A8FFF738FD65
:100BAC00A2E700BF790C0808022AF8B5054607D061
:100BBC00032A18D0012A01D10B6803600020F8BD6C
:100BCC0018200E68FFF761FA044650B13146FFF762
:100BDC00CBFE3069B6F9147008B100F0ABFC2061A3
:100BEC00A7822C60EAE70468002CE7D004F110001F
:100BFC00FFF73DFE2046FFF73EFD1821204600F092
:100C0C004AFCDBE738B5002383608B6804460D464D
:100C1C002BB102229847EB68E360AB68A3602046D7
:100C2C0038BD022A70B5044607D0032A12D0012A17
:100C3C0001D10B680360002070BD14200E68FFF713
:100C4C0024FA054620B13146FFF7DCFF337C2B74C8
:100C5C002560F0E70468002CEDD02046FFF70BFD73
:100C6C001421204600F017FCE5E70000F0B504461F
:100C7C0089B00D4601A81146FFF723FEA4B124B29A
:100C8C001DB1284600F056FC054601A803A90395A2
:100C9C00ADF81040FFF778FE03A8FFF7E8FD02A8B7
:100CAC00FFF7B6FC09B0F0BD0123019DD5E84F2F2D
:100CBC00002A03D1C5E8413F0029F7D1EFD12B73AE
:100CCC00BFF35B8F6B70BFF35B8F2B1D53E8006F13
:100CDC0043E80042002AF9D1BFF35B8F002EDED02F
:100CEC002046FFF749FB074660B1304605F10C0181
:100CFC00FFF716FE3046FFF7BEFC1021304600F021
:100D0C00CAFBCCE7314603A8FFF77CFF2B7B1020F6
:100D1C008DF81C30FFF7B9F90546D0B18760142067
:100D2C00FFF7B3F9044678B10146876003A8FFF7D3
:100D3C00B1FC059BA268A360069B0592E268E36088
:100D4C009DF81C3006922374064B2C60EB60064B0E
:100D5C00AB6003A8FFF78FFC002229460348FFF77E
:100D6C0013FBC7E73F0908082F0C08088511080872
:100D7C00704710B50446082100F08DFB204610BDCD
:100D8C00F8B50E46002400F10807051D17F8011DE3
:100D9C000A223046FFF71FFCAF42044401D1204623
:100DAC00F8BD002CF2D02E213046FFF7FBFB04449B
:100DBC00ECE70000024A026000224260704700BF6C
:100DCC0004160808024A02600A684260704700BFB5
:100DDC0004160808014AC0E90021704704160808E7
:100DEC0010B59DF8084044EA032444EA024444EA5E
:100DFC000164446010BD000037B5044D05609DF8DA
:100E0C0018500095FFF7ECFF03B030BD041608082E
:100E1C0041747047704708B50021007CFFF784FAD5
:100E2C0040EAE07008BD08B50121007CFFF77CFAB0
:100E3C0040EAE07008BD08B5007CFFF76DFA20EAC7
:100E4C00E07008BD08B5007CFFF75EFA20EAE070A0
:100E5C0008BD38B50446007C0D46FFF75DFA002846
:100E6C0001DC607C28B12946207CFFF765FA20EA7A
:100E7C00E07038BD007CFFF767BA10B5044614214A
:100E8C0000F009FB204610BD10B54FF47A730446F0
:100E9C0008460021C4E90113044B2074236001238C
:100EAC0011466374FFF720FA204610BD1816080887
:100EBC000022007CFFF720BA10B504461422002152
:100ECC0000F00CFB054B20466360054BE36040F2E1
:100EDC00011323818123238210BD00BFD000002089
:100EEC00D101002030B50F4D87B001A8FFF7E4FF0A
:100EFC002978BFF35B8F11F0010410D12846FFF75E
:100F0C00CAF860B1214601AA0748FFF7BDFF284681
:100F1C00FFF7C6F8054A0649034800F0B7FA02483D
:100F2C0007B030BDA0000020A80000206800002001
:100F3C00210E080810B504461422002100F0CEFA48
:100F4C00054B20466360054BE36040F2011323819F
:100F5C008123238210BD00BF5202002053030020C6
:100F6C0010B50F4C86B001A8FFF7E4FF2378BFF350
:100F7C005B8FDB0710D42046FFF78DF860B10121A1
:100F8C0001AA0848FFF780FF2046FFF789F8064AB8
:100F9C000649044800F07AFA024806B010BD00BFBA
:100FAC00A4000020BC00002068000020210E0808CE
:100FBC00002240681146FFF71BBAF0B5002685B039
:100FCC00044610460F461546039600F0CEFA7B6891
:100FDC0081B20096284603AAFFF77EF930B131465C
:100FEC002046FFF7F7FE204605B0F0BD204603A9CA
:100FFC00FFF7E8FEF7E7002240681146FFF718BA42
:10100C00002240681146FFF723BA00224068FFF720
:10101C0017BA0022406881F00101FFF701BA0023E2
:10102C0040681A461946FFF7F3B9002340681A4680
:10103C001946FFF7E5B9002240681146FFF7C8B919
:10104C00002202214068FFF7CBB9002340681A4602
:10105C00FFF7B6B910B52824074B224618460021D5
:10106C0000F03CFA4FF0FF3242600422034B048044
:10107C005A60034A1A6010BDDC030020D403002020
:10108C004816080870474174704708B5007CFFF794
:10109C00D3F820EAE07008BD08B5007CFFF7A4F88F
:1010AC0020EAE07008BD08B5007CFFF7ADF840EA17
:1010BC00E07008BD08B5007CFFF79EF840EAE070D0
:1010CC0008BD007CFFF7A8B870B5467C04460D46F9
:1010DC002EB12946207CBDE87040FFF77DB8007C1E
:1010EC00FFF7AAF80028F4DC304670BD10B50446B2
:1010FC00142100F0D0F9204610BD00004FF0000C78
:10110C0010B50446084611464FF47A72C4E901C280
:10111C00044A20742260012262741A46FFF754F8C4
:10112C00204610BD7C16080838B50D4D2978BFF344
:10113C005B8F11F0010411D12846FEF7ACFF68B1AA
:10114C002146084A084B0948FFF7D8FF2846FEF706
:10115C00A7FF074A0749054800F098F9034838BD2E
:10116C0004040020080400208C040020100500203A
:10117C00680000209110080810B5836804460BB96C
:10118C0000F08DF9C3689847A3681BB10322214670
:10119C00204698472046BDE81040102100F07BB94E
:1011AC007047F8B5064615460C468F18BC4206D05B
:1011BC00336830469B6814F8011B9847F6E72846BD
:1011CC00F8BD0022007CFFF73FB80021007CFFF740
:1011DC0043B80021007CFFF747B80021007CFFF7E3
:1011EC004BB80021007CFFF74FB810B50446142112
:1011FC0000F051F9204610BD10B54FF47A73044637
:10120C0008460021C4E90113034B114623602074E6
:10121C00FFF74AF8204610BDAC16080800234068BA
:10122C001A46FFF7CDB8002202214068FFF7D8B864
:10123C00002240681146FFF7CBB8002240681146E7
:10124C00FFF7D6B8002340681A461946FFF7D8B8FE
:10125C00002340681A461946FFF7DAB800224068A6
:10126C0081F00101FFF7DCB800224068FFF7E8B815
:10127C00002240681146FFF7EBB800224068114687
:10128C00FFF7D6B870B51546002686B0044604A8FC
:10129C00FFF790FD2846039600F067F90A4B00967D
:1012AC0081B25B68284603AAFFF716F830B13146C5
:1012BC002046FFF78FFD204606B070BD204603A9DF
:1012CC00FFF780FDF7E700BFD4030020024B034A71
:1012DC001A6000225A60704724050020D4160808B2
:1012EC0010B50446806808B1FEF766FF204610BDB5
:1012FC002E2870B5044601D9002070BDA0F10D0355
:10130C00022B0BD9012826D800F098F80021007C7C
:10131C00FEF7C2FF80F00100C0B2EEE7134E317849
:10132C00BFF35B8F11F001050FD13046FEF7B3FE12
:10133C0058B129460E48FFF7D3F83046FEF7B0FEF9
:10134C000C4A0D490A4800F0A1F8094B1878FEF731
:10135C00BBFF0028D0D1123C012C05D8FFF7E4FECE
:10136C00007CFEF761FFD5E70120C6E72C050020C5
:10137C003005002068000020ED1208082E2838B532
:10138C0004460D460AD8FF2908D0FFF7B1FF28B153
:10139C0029462046BDE83840FEF7DEBE38BD38B5DC
:1013AC0004460D46FEF7E0FEFF2810D0062804D8B0
:1013BC004D2323FA00F0C30709D42046FFF798FF0A
:1013CC0028B129462046BDE83840FEF7D5BE38BDC9
:1013DC00002313B5074C1A46194620460093FFF715
:1013EC000BFD2046044A054902B0BDE8104000F050
:1013FC004DB800BF40050020680000207D0D080896
:10140C00002370B5202543801423084E0446038026
:10141C00314685600561284600F03FF83146606032
:10142C00284600F03AF8E060204670BD0017080826
:10143C0010B50446FFF7E4FF204610BD30B50F4D44
:10144C0087B02978BFF35B8F11F0010413D12846C4
:10145C00FEF721FE78B101A8FFF7EAFF214601AAA9
:10146C000748FFF7C9FE2846FEF71AFE054A06494B
:10147C00034800F00BF8024807B030BD48050020C7
:10148C004C05002068000020AD1108080B460146F1
:10149C00184600F007B8FEF7FCBDFEF7F8BD08B51E
:1014AC00FFF706F810B504460448134620B10A4667
:1014BC0002202146AFF3008010BD00BF00000000E9
:1014CC000A44914200F1FF3300D1704710B511F876
:1014DC00014B914203F8014FF9D110BD0346024470
:1014EC00934200D1704703F8011BF9E738B50D4B57
:1014FC0004461D68AB6B7BB91820FEF7C9FF0A4A7E
:10150C000A4BA863C0E90023094B012283600B231B
:10151C0083810023C0E904230022AB6B1C615A6158
:10152C0038BD00BF040000200E33CDAB34126DE685
:10153C00ECDE0500024B0146186800F003B800BF52
:10154C000400002070B5044608460D4600F00DF866
:10155C00461C31462046FEF7B3FF044618B132460E
:10156C002946FFF7ADFF204670BD034613F8012B4B
:10157C00002AFBD1181A0138704700001D0008081A
:10158C005D000808850008088900080800000000B4
:10159C0048656C6C6F5F576F726C6421006D65737E
:1015AC00736167650048656C6C6F20576F726C6473
:1015BC0021006170700025592D256D2D2564542551
:1015CC00483A254D3A2553257A0061736374696D49
:1015DC00650000000000000000000000450808083D
:1015EC004B0808088908080859080808470808081B
:1015FC0000000000000000008D0D08087D0D08089B
:10160C007F0D08080000000000000000210E0808F3
:10161C00870E08085F0E080865050808510E0808B3
:10162C00230E0808330E0808810E0808430E08081C
:10163C001D0E0808000000000000000057100808EC
:10164C004D10080843100808BD0F0808371008088B
:10165C002B1008081F100808171008080D10080890
:10166C0003100808C70F0808000000000000000065
:10167C0091100808F9100808D51008086505080825
:10168C00A5100808C1100808B3100808CF100808E6
:10169C0093100808971008080000000000000000D4
:1016AC00AD110808F7110808CF110808AF11080888
:1016BC00D7110808DF110808E7110808EF1108080E
:1016CC00000000000000000029120808331208086E
:1016DC003D12080847120808511208085D12080844
:1016EC0069120808751208087D1208088712080884
:1016FC009112080800000000450108082905080897
:10170C005906080869060808C50608086110080883
:10171C00D9120808DD1308080000000000000000C2
:04172C0000000000B9
:0417300000000000B5
:10173400D615080808000020000000000000000082
:101744000000000000000000000000000000000095
:101754000000000000000000000000000000000085
:101764000000000000000000000000000000000075
:101774000000000000000000000000000000000065
:101784000000000000000000000000000000000055
:0817940000000000000000004D
:10179C00FFFFFFFF00000102030405060708090A0A
:1017AC000B0C0D0E0F101112131415161718191A05
:0817BC001B1C1D1E1F2028004C
:0417C400785634120D
:040000050808001CCB
:00000001FF
