:020000040808EA
:10000000000008089C270808000006000A000501F7
:080010000402D4070000000007
:04001800102508089F
:1000200009480A4908B5884205D0094A824202D0E7
:10003000121A02F023FA0748074A0021121A02F0A6
:100040002BFA064808BD00BF000000200C27080856
:100050006800002068000020A4060020A4060020FC
:1000600070B500F0C3FE0025054E064CA41BA40885
:10007000A54200D170BD56F8043B98470135F7E71B
:10008000DC260808FC26080800F0E2B808B500F0F5
:10009000FBF8BDE8084000F06BBE00F0DDBB00F0EF
:1000A000E3BB0078B0FA80F0400970470123037089
:1000B000704770470000000008B5006B01F0C6FBF8
:1000C00003A3D3E9002301F063FA01F0D1FE08BDD8
:1000D0009A9999999999B93F0021008901F0AAB993
:1000E00010B50446054B40F81C3B00F0A7FC04F19A
:1000F0000C0000F0A3FC204610BD00BF9C250808A2
:1001000008B5037933B1012B0AD0BDE80840064891
:1001100001F034BA008901F09EF901F0B3FF08BD87
:10012000008901F0ABF9F8E72425080870B50B68E1
:1001300098B01B68054608460C46984704F10C0128
:10014000206304A800F0E6FC6846244900F0C0FCE7
:10015000694604A800F02CFD06460622216B08A87B
:1001600000F0F4FC08A9304600F022FD06461C49C8
:100170000CA800F0ADFC0CA9304600F019FD04F10C
:100180001C0100F015FD0446164910A800F0A0FC63
:1001900010A9204600F00CFD0446134914A800F0F5
:1001A00097FC14A9204600F003FD0146284600F004
:1001B000B1FC14A800F042FC10A800F03FFC0CA811
:1001C00000F03CFC08A800F039FC684600F036FC62
:1001D00004A800F033FC284618B070BD3B25080881
:1001E0003E25080841250808432508082DE9F04761
:1001F00005460446174688461E46124BDFF84CA0BB
:1002000045F80C3B514604F11C09284600F060FCFF
:100210005146484600F05CFC0B4B394623602846AB
:10022000C4F8088000F067FC3146484600F063FCE3
:100230009DF82030204684F82C3000232363BDE84D
:10024000F08700BF9C250808AC2508086D25080824
:1002500008B50121072001F0EDF800F0B3FE4FF4DE
:10026000E13100F095FE00F0ADFE054900F0E5FC3F
:1002700000F0A8FEBDE80840024900F0DEBC00BF67
:1002800047250808612508081FB5304C304920462D
:1002900000F04BFC68462F49FFF748FF69462046AF
:1002A00000F082FC684600F0C9FB68462A49FFF767
:1002B0003DFF6946204600F077FC684600F0BEFB33
:1002C00068462649FFF732FF6946204600F06CFC7D
:1002D000684600F0B3FB68462149FFF727FF6946EF
:1002E000204600F061FC684600F0A8FB68461D4906
:1002F000FFF71CFF6946204600F056FC684600F0F8
:100300009DFB68461849FFF711FF6946204600F03B
:100310004BFC684600F092FB6846144900F0D8FB9D
:100320006946204600F040FC684600F087FB00F07C
:1003300049FE216800F06EFC4FF47A7000F0B6FCC4
:1003400000F040FE00F06DFC04B010BDA4010020E0
:100350006D2508086C000020A0000020D4000020BB
:10036000080100203C010020700100206C250808D5
:100370002DE9F0415E4D8AB05E4C00F0D9F8284678
:100380005D4900F0A5FB5D4E224628465C4901F020
:10039000EBF85C4902A800F09BFB314606A800F090
:1003A00097FB6323584F02AA00210093384606ABFF
:1003B000FFF71CFF554D06A800F040FB02A800F017
:1003C0003DFB22462946384601F0CEF8504902A8A6
:1003D00000F07EFB314606A800F07AFB64234D4F07
:1003E00002AA00210093384606ABFFF7FFFE06A8DD
:1003F00000F024FB02A800F021FB224629463846E3
:1004000001F0B2F8444902A800F062FB314606A8A8
:1004100000F05EFB6523414F02AA0021009338469D
:1004200006ABFFF7E3FE06A800F008FB02A800F009
:1004300005FB38463A4F2246294601F095F83946E1
:1004400002A800F045FB314606A800F041FB6623F8
:10045000DFF8D48002AA00210093404606ABFFF7E4
:10046000C5FE06A800F0EAFA02A800F0E7FA224664
:100470002946404601F078F8394602A800F028FBEA
:10048000314606A800F024FB6723DFF8A08002AA0B
:1004900000210093404606ABFFF7A8FE06A800F037
:1004A000CDFA02A800F0CAFA22462946404601F0D9
:1004B0005BF8394602A800F00BFB314606A800F0B5
:1004C00007FB6823174E02AA00210093304606ABB3
:1004D000FFF78CFE06A800F0B1FA02A800F0AEFA11
:1004E00022462946304601F03FF80AB0BDE8F081C7
:1004F000A4010020680000206D2508087725080861
:100500003D0A08086E2508086C000020E100080874
:1005100079250808A000002082250808D4000020C2
:100520008B25080870010020080100203C010020F4
:1005300008B5024B1B681B68019308BDB001040895
:1005400008B5024B1B685B68019308BDB001040845
:1005500008B5024B1B689B68019308BDB0010408F5
:1005600008B5024B1B68DB68019308BDB0010408A5
:1005700008B5024B1B685B69019308BDB001040814
:1005800008B5024B1B681B6B019308BDB001040842
:1005900008B5024B1B685B68019308BD9C01040809
:1005A00008B5024B1B685B69019308BD9C010408F8
:1005B00008B5024B1B685B6C019308BDD0010408B1
:1005C00008B5024B1B689B6C019308BDD001040861
:1005D00008B5024B1B689B69019308BDC401040860
:1005E00008B5024B1B685B6A019308BDC40104088F
:1005F00008B5024B1B689B6A019308BDC40104083F
:1006000008B5024B1B68DB6A019308BDC4010408EE
:1006100008B5024B1B681B6B019308BDC40104089D
:1006200008B5024B1B685B6B019308BDC40104084D
:1006300008B5024B1B689B6B019308BDC4010408FD
:1006400008B5024B1B681B6C019308BDC40104086C
:1006500008B5024B1B681B6A019308BDAC01040876
:1006600008B5024B1B685B6A019308BDAC01040826
:1006700008B5024B1B689B6A019308BDAC010408D6
:1006800008B5024B1B68DB6A019308BDAC01040886
:1006900008B5024B1B681B6B019308BDAC01040835
:1006A00008B5024B1B685B6B019308BDAC010408E5
:1006B00008B5024B1B681B6C019308BDAC01040814
:1006C00008B5024B1B68DB69019308BDB40104083F
:1006D00008B5024B1B681B6A019308BDB4010408EE
:1006E00008B5024B1B68DB6B019308BD20000608B0
:1006F00008B5024B1B681B68019308BD1C00060867
:1007000008B5024B1B685B68019308BD1C00060816
:1007100008B5024B1B681B69019308BD1C00060845
:1007200008B5024B1B685B69019308BD1C000608F5
:1007300008B5024B1B689B69019308BD1C000608A5
:1007400008B5024B1B68DB69019308BD1C00060855
:1007500008B5024B1B681B6A019308BD1C00060804
:1007600008B5024B1B685B68019308BDA40104082F
:1007700008B5024B1B685B69019308BDA40104081E
:1007800008B5034B1B68D3F89030019308BD0000F7
:10079000A401040808B5034B1B68D3F89C300193EF
:1007A00008BD0000A401040808B5024B1B685B6883
:1007B000019308BDC801040808B5024B1B689B687B
:1007C000019308BDC801040808B5024B1B68DB682B
:1007D000019308BDC801040808B5024B1B681B69DA
:1007E000019308BDC801040808B5024B1B685B698A
:1007F000019308BDC801040808B5024B1B689B693A
:10080000019308BDC801040808B5024B1B68DB69E9
:10081000019308BDC801040808B5024B1B681B6A98
:10082000019308BDC801040808B5024B1B681B6B87
:10083000019308BDC801040808B5024B1B685B6B37
:10084000019308BDC801040808B5024B1B68DB6BA7
:10085000019308BDCC01040808B5024B1B681B6856
:10086000019308BDA001040808B5024B1B685B6832
:10087000019308BDA001040808B5024B1B689B68E2
:10088000019308BDA001040808B5024B1B685B6C0E
:10089000019308BDA001040870B5002604460D466A
:1008A00040F8086FFFF784FE28462570FFF708FF21
:1008B0002046666070BD10B50446006818B1FFF7A9
:1008C000D3FF0023236010BD10B50446FFF7F3FFEC
:1008D000204610BD0222002010B5084B084C1A60BB
:1008E000084B2060A080A071A360FFF739FF20466D
:1008F000BDE81040044A054900F036BEC0010020A2
:10090000B40100200000FFFF68000020C9080808AB
:1009100010B5044601F0F4FD431E204623448342F3
:1009200006D90278197800F8011B03F80129F6E7C7
:1009300010BD70B50C46911E222922D8254668B1FB
:10094000B0FBF2F602FB1600C1B2092894BF3031A9
:100950005731C9B2304605F8011BF0E72A4630216D
:100960002344934202D902F8011BFAE75A1BAB4217
:1009700038BF002200232046AB54FFF7C9FF2046B2
:1009800070BD0020FCE700002DE9F04707460D464A
:1009900016461C46002200233846294601F020FA5C
:1009A00020B12D2305F1004504F8013B00234FF051
:1009B000010A0A22D9B28E4203D902FB0AFA013394
:1009C000F8E7504600F030FF3A462B4600F096FF1D
:1009D0008046894601F0C2FB05460F4600F058FFED
:1009E00002460B464046494600F0D0FD0022124B1D
:1009F00001F00AFA10B1013547F1000752462846C6
:100A00003946D31701F092FB0123154621460A22ED
:100A1000FFF78FFF6EB1204601F072FD2E232118E3
:100A200023540A2233462846BDE8F0470131FFF738
:100A300080BFBDE8F08700BF0000E03F10B504466E
:100A40000068FFF711FF204610BD10B5044600688E
:100A500008B1FFF709FF0023C4E90133236010BD8B
:100A600038B504460D4600680131FFF705FF10B1A7
:100A7000C4E90005012038BD10B50368044623B160
:100A800043688B4201D3012010BD2046FFF7E8FFE9
:100A90000028F9D0A368002BF5D122681370F2E783
:100AA00070B50E46114604461546FFF7E5FF20B91E
:100AB0002046FFF7CAFF204670BD2A46314620680F
:100AC000A56001F0DBFC00212268A368D154F2E7A5
:100AD00038B5002304460D46C0E900338360037334
:100AE00039B1084601F00CFD294602462046FFF7C1
:100AF000D7FF204638BD884210B50B46044604D0C7
:100B0000096821B19A68FFF7CBFF204610BDFFF7B7
:100B10009CFFFAE7002310B50446C0E90033836068
:100B20000373FFF7E8FF204610BD38B505460C46B5
:100B300049B1084601F0E4FC214602462846FFF789
:100B4000AFFF284638BDFFF780FFFAE7002330B536
:100B500004468BB0C0E9003383600373D5B2084606
:100B600000F074FE2A4601ABFFF70EFF204601A9F4
:100B7000FFF7DBFF20460BB030BD70B505460E46D3
:100B800009B9002070BD6AB1846814442146FFF79A
:100B900073FF0028F5D02868AB683146184401F08F
:100BA000A7FCAC600120EDE78A680968FFF7E5BFA4
:100BB00010B58A6809680446FFF7DFFF10B92046C0
:100BC000FFF743FF204610BDF8B506460D4600244A
:100BD0008F18BD420CD0336830469B6815F8011B56
:100BE0009847031E01DB1C44F3E7002C08BF1C469A
:100BF0002046F8BD70B505460C46084649B101F0DF
:100C00007FFC2B68024621462846BDE87040DB6821
:100C1000184770BD08B5FFF7EDFF08BD03689B6876
:100C2000184738B50D210546FFF7F8FF0A2104469D
:100C30002846FFF7F3FF204438BD38B50546FFF7D7
:100C4000D9FF04462846FFF7ECFF204438BD0023B7
:100C5000012A98BF0A2230B58BB00C468DF824309B
:100C600009A92546B4FBF2F404FB1253DBB2092BAD
:100C700094BF30333733DBB2AA4201F8013DF0D9DB
:100C8000FFF7B8FF0BB030BD014B024A1A60704746
:100C9000C4010020B4250808024B1A68024B1A60F0
:100CA000704700BF00000020C80100200021FFF7AE
:100CB0005FBD10B58368044613B10322014698470F
:100CC000204610BD10B50446FFF7F3FF204610BDC7
:100CD00000230348034A0449836000F045BC00BF79
:100CE000CC01002068000020C50C0808014B1860EA
:100CF000704700BF0400002008B5174B43B100F057
:100D000061F903681B699847002801DDAFF3008093
:100D1000124B43B100F078FA03681B69984700282A
:100D200001DDAFF300800E4B0BB1AFF300800D4B34
:100D30000BB1AFF300800C4B0BB1AFF300800B4B4A
:100D400043B100F07DF903681B699847002801DD75
:100D5000AFF3008008BD00BF0000000000000000ED
:100D60000000000000000000000000000000000083
:100D700008B5FFF7C1FFFFF713FC014B186008BD72
:100D8000800600200248034A0349121A01F076BB8C
:100D9000004002400440024008270808002307B52D
:100DA0001A466FF077010093FFF7F4FC03B05DF88B
:100DB00004FB000007B543880A2B08D0502B0BD149
:100DC000094B1B684BB103B05DF804EB1847FFF704
:100DD000E5FF03B05DF804FB00231A466FF07701CE
:100DE0000093FFF7D7FCF4E7E001002038B5124C80
:100DF00000211248FFF748FD114D2368AB420CBF9C
:100E0000012200220F4B1A7002D0FFF7BBFF2560B2
:100E1000FFF7BEFB044601F047FB0B4B13B1204626
:100E2000AFF3008000210848FFF70EFDBDE8384011
:100E300000210648FFF7A4BC00400240ED0C080862
:100E40001E1C279ADC01002000000000B50D0808D8
:100E5000704710B50446082100F08BFB204610BDFA
:100E6000F8B50E46002400F10807051D17F8011D0E
:100E70000A223046FFF7EBFEAF42044401D1204680
:100E8000F8BD002CF2D02E213046FFF7C7FE0444F7
:100E9000ECE70000024A026000224260704700BF97
:100EA000DC250808024A02600A684260704700BFF9
:100EB000DC250808014AC0E900217047DC25080844
:100EC00010B59DF8084044EA032444EA024444EA89
:100ED0000164446010BD000037B5044D05609DF805
:100EE00018500095FFF7ECFF03B030BDDC25080873
:100EF00041747047704708B50021007CFFF718FC6B
:100F000040EAE07008BD08B50121007CFFF710FC45
:100F100040EAE07008BD08B5007CFFF701FC20EA5C
:100F2000E07008BD08B5007CFFF7F2FB20EAE07036
:100F300008BD38B50446007C0D46FFF7F1FB0028DC
:100F400001DC607C28B12946207CFFF7F9FB20EA10
:100F5000E07038BD007CFFF7FBBB10B504461421E0
:100F600000F007FB204610BD10B54FF47A7304461D
:100F700008460021C4E90113044B207423600123B7
:100F800011466374FFF7B4FB204610BDF025080836
:100F90000022007CFFF7B4BB10B5044614220021E8
:100FA00001F07AFA054B20466360054BE36040F29E
:100FB000011323818123238210BD00BF140200206E
:100FC0001503002030B50F4D87B001A8FFF7E4FFEF
:100FD0002978BFF35B8F11F0010410D12846FFF789
:100FE00060F860B1214601AA0748FFF7BDFF284617
:100FF000FFF75CF8054A0649034800F0B5FA0248D5
:1010000007B030BDE4010020EC01002068000020A2
:10101000F50E080810B504461422002101F03CFA30
:10102000054B20466360054BE36040F201132381CA
:101030008123238210BD00BF960300209704002067
:1010400010B50F4C86B001A8FFF7E4FF2378BFF37B
:101050005B8FDB0710D42046FFF723F860B1012136
:1010600001AA0848FFF780FF2046FFF71FF8064A4D
:101070000649044800F078FA024806B010BD00BFE7
:10108000E80100200002002068000020F50E08089A
:10109000002240681146FFF79FBBF0B5002685B0DF
:1010A000044610460F461546039601F029FA7B6860
:1010B00081B20096284603AAFFF712FB30B13146F1
:1010C0002046FFF7F7FE204605B0F0BD204603A9F5
:1010D000FFF7E8FEF7E7002240681146FFF79CBBE8
:1010E000002240681146FFF7A7BB00224068FFF7C7
:1010F0009BBB0022406881F00101FFF785BB002304
:1011000040681A461946FFF777BB002340681A4625
:101110001946FFF769BB002240681146FFF74CBB38
:10112000002202214068FFF74FBB002340681A46A7
:10113000FFF73ABB10B52824074B2246184600217A
:1011400001F0AAF94FF0FF3242600422034B048001
:101150005A60034A1A6010BD2005002018050020BF
:101160002026080870474174704708B5007CFFF7D7
:1011700067FA20EAE07008BD08B5007CFFF738FA8E
:1011800020EAE07008BD08B5007CFFF741FA40EAAC
:10119000E07008BD08B5007CFFF732FA40EAE07065
:1011A00008BD007CFFF73CBA70B5467C04460D468E
:1011B0002EB12946207CBDE87040FFF711BA007CB3
:1011C000FFF73EFA0028F4DC304670BD10B5044647
:1011D000142100F0CEF9204610BD00004FF0000CA5
:1011E00010B50446084611464FF47A72C4E901C2AC
:1011F000044A20742260012262741A46FFF7E8F95B
:10120000204610BD5426080838B50D4D2978BFF387
:101210005B8F11F0010411D12846FEF742FF68B13F
:101220002146084A084B0948FFF7D8FF2846FEF731
:101230003DFF074A0749054800F096F9034838BDC5
:10124000480500204C050020D00500205406002051
:1012500068000020651108087047F8B50646154675
:101260000C468F18BC4206D0336830469B6814F891
:10127000011B9847F6E72846F8BD0022007CFFF7DF
:10128000E7B90021007CFFF7EBB90021007CFFF7F4
:10129000EFB90021007CFFF7F3B90021007CFFF7D4
:1012A000F7B910B50446142100F063F9204610BDCB
:1012B00010B54FF47A73044608460021C4E90113BF
:1012C000034B114623602074FFF7F2F9204610BD4E
:1012D00084260808002340681A46FFF765BA0022F2
:1012E00002214068FFF770BA002240681146FFF7FC
:1012F00063BA002240681146FFF76EBA00234068C7
:101300001A461946FFF770BA002340681A46194674
:10131000FFF772BA0022406881F00101FFF774BA4A
:1013200000224068FFF780BA002240681146FFF7AC
:1013300083BA002240681146FFF76EBA70B51546B1
:10134000002686B0044604A8FFF7A4FD28460396AD
:1013500001F0D6F80A4B009681B25B68284603AAD2
:10136000FFF7BEF930B131462046FFF7A3FD204616
:1013700006B070BD204603A9FFF794FDF7E700BF54
:1013800018050020024B034A1A6000225A60704779
:1013900068060020AC26080810B50446806808B12D
:1013A000FFF70EF9204610BD2E2870B5044601D96E
:1013B000002070BDA0F10D03022B0BD9012826D807
:1013C00000F0AAF80021007CFFF76AF980F0010024
:1013D000C0B2EEE7134E3178BFF35B8F11F0010519
:1013E0000FD13046FEF75DFE58B129460E48FFF793
:1013F00053FA3046FEF75AFE0C4A0D490A4800F0EF
:10140000B3F8094B1878FFF763F90028D0D1123CE4
:10141000012C05D8FFF7F8FE007CFFF709F9D5E7A6
:101420000120C6E770060020740600206800002036
:10143000991308082E2838B504460D460AD8FF2906
:1014400008D0FFF7B1FF28B129462046BDE8384053
:10145000FFF77EB838BD10B50446FFF781F8031FCB
:10146000DBB2012B08D92046FFF79EFF20B12046B2
:10147000BDE81040FFF77CB8002010BD10B5044651
:1014800009289CBF0A34A4B22046FFF78DFF50B153
:1014900003212046FFF754F8032804D12046BDE875
:1014A0001040FFF76DB8002010BD0000002313B5F9
:1014B000074C1A46194620460093FFF70DFD2046BB
:1014C000044A054902B0BDE8104000F04DB800BF25
:1014D0008406002068000020510E0808002370B523
:1014E000202543801423084E04460380314685603E
:1014F0000561284600F03FF831466060284600F05C
:101500003AF8E060204670BDD826080810B50446B9
:10151000FFF7E4FF204610BD30B50F4D87B02978A6
:10152000BFF35B8F11F0010413D12846FEF7B9FD1C
:1015300078B101A8FFF7EAFF214601AA0748FFF7A3
:10154000B7FE2846FEF7B2FD054A0649034800F0FB
:101550000BF8024807B030BD8C0600209006002032
:1015600068000020591208080B460146184600F092
:1015700077BFFEF794BDFEF790BD000000487047AE
:101580000000C07F81F0004102E000BF83F0004313
:1015900030B54FEA41044FEA430594EA050F08BF0E
:1015A00090EA020F1FBF54EA000C55EA020C7FEAD2
:1015B000645C7FEA655C00F0E2804FEA5454D4EB4F
:1015C0005555B8BF6D420CDD2C4480EA020281EA19
:1015D000030382EA000083EA010180EA020281EA51
:1015E0000303362D88BF30BD11F0004F4FEA0131A3
:1015F0004FF4801C4CEA113102D0404261EB4101B2
:1016000013F0004F4FEA03334CEA133302D0524237
:1016100063EB430394EA050F00F0A780A4F10104F3
:10162000D5F1200E0DDB02FA0EFC22FA05F280182D
:1016300041F1000103FA0EF2801843FA05F3594113
:101640000EE0A5F120050EF1200E012A03FA0EFC92
:1016500028BF4CF0020C43FA05F3C01851EBE371BC
:1016600001F0004507D54FF0000EDCF1000C7EEBD9
:1016700000006EEB0101B1F5801F1BD3B1F5001F17
:101680000CD349085FEA30004FEA3C0C04F1010436
:101690004FEA445212F5800F80F09A80BCF1004F5F
:1016A00008BF5FEA500C50F1000041EB045141EAE1
:1016B000050130BD5FEA4C0C404141EB0101013CAA
:1016C00028BFB1F5801FE9D291F0000F04BF014699
:1016D0000020B1FA81F308BF2033A3F10B03B3F16B
:1016E00020020CDA0C3208DD02F1140CC2F10C02FB
:1016F00001FA0CF021FA02F10CE002F11402D8BF59
:10170000C2F1200C01FA02F120FA0CFCDCBF41EA24
:101710000C019040E41AA2BF01EB0451294330BDF3
:101720006FEA04041F3C1CDA0C340EDC04F11404D0
:10173000C4F1200220FA04F001FA02F340EA0300A7
:1017400021FA04F345EA030130BDC4F10C04C4F1ED
:10175000200220FA02F001FA04F340EA03002946CD
:1017600030BD21FA04F0294630BD94F0000F83F417
:10177000801306BF81F480110134013D4EE77FEAFA
:10178000645C18BF7FEA655C29D094EA050F08BF46
:1017900090EA020F05D054EA000C04BF1946104627
:1017A00030BD91EA030F1EBF0021002030BD5FEA6B
:1017B000545C05D14000494128BF41F0004130BD93
:1017C00014F580043CBF01F5801130BD01F00045E7
:1017D00045F0FE4141F470014FF0000030BD7FEA5A
:1017E000645C1ABF194610467FEA655C1CBF0B4655
:1017F000024650EA013406BF52EA033591EA030F6C
:1018000041F4002130BD00BF90F0000F04BF002163
:10181000704730B54FF4806404F132044FF0000596
:101820004FF0000150E700BF90F0000F04BF00210F
:10183000704730B54FF4806404F1320410F0004575
:1018400048BF40424FF000013EE700BF42004FEA70
:10185000E2014FEA31014FEA02701FBF12F07F43ED
:1018600093F07F4F81F06051704732F07F4208BFA4
:10187000704793F07F4F04BF41F40021704730B5AB
:101880004FF4607401F0004521F000411CE700BFF7
:1018900050EA010208BF704730B54FF000050AE07A
:1018A00050EA010208BF704730B511F0004502D57B
:1018B000404261EB41014FF4806404F132045FEA7D
:1018C000915C3FF4D8AE4FF003025FEADC0C18BF26
:1018D00003325FEADC0C18BF033202EBDC02C2F118
:1018E000200300FA03FC20FA02F001FA03FE40EAAA
:1018F0000E0021FA02F11444BDE600BF70B54FF0AE
:10190000FF0C4CF4E06C1CEA11541DBF1CEA13558B
:1019100094EA0C0F95EA0C0F00F0DEF82C4481EAF3
:10192000030621EA4C5123EA4C5350EA013518BF13
:1019300052EA033541F4801143F4801338D0A0FB00
:1019400002CE4FF00005E1FB02E506F00042E0FBAD
:1019500003E54FF00006E1FB03569CF0000F18BFB3
:101960004EF0010EA4F1FF04B6F5007F64F540745B
:1019700004D25FEA4E0E6D4146EB060642EAC621EE
:1019800041EA55514FEAC52040EA5E504FEACE2E5B
:10199000B4F1FD0C88BFBCF5E06F1ED8BEF1004F5E
:1019A00008BF5FEA500E50F1000041EB045170BDDA
:1019B00006F0004646EA010140EA020081EA03011E
:1019C000B4EB5C04C2BFD4EB0C0541EA045170BD1A
:1019D00041F480114FF0000E013C00F3AB8014F194
:1019E000360FDEBF002001F0004170BDC4F10004DD
:1019F000203C35DA0C341BDC04F11404C4F120055E
:101A000000FA05F320FA04F001FA05F240EA0200B8
:101A100001F0004221F0004110EBD37021FA04F6EE
:101A200042EB06015EEA430E08BF20EAD37070BDA8
:101A3000C4F10C04C4F1200500FA04F320FA05F007
:101A400001FA04F240EA020001F0004110EBD37009
:101A500041F100015EEA430E08BF20EAD37070BD79
:101A6000C4F1200500FA05F24EEA020E20FA04F352
:101A700001FA05F243EA020321FA04F001F0004101
:101A800021FA04F220EA020000EBD3705EEA430E72
:101A900008BF20EAD37070BD94F0000F0FD101F0A1
:101AA0000046400041EB010111F4801F08BF013CDA
:101AB000F7D041EA060195F0000F18BF704703F018
:101AC0000046520043EB030313F4801F08BF013D9F
:101AD000F7D043EA0603704794EA0C0F0CEA13555B
:101AE00018BF95EA0C0F0CD050EA410618BF52EA15
:101AF0004306D1D181EA030101F000414FF000001B
:101B000070BD50EA410606BF1046194652EA430628
:101B100019D094EA0C0F02D150EA013613D195EA9C
:101B20000C0F05D152EA03361CBF104619460AD1E4
:101B300081EA030101F0004141F0FE4141F47001EE
:101B40004FF0000070BD41F0FE4141F4780170BDDE
:101B500070B54FF0FF0C4CF4E06C1CEA11541DBF43
:101B60001CEA135594EA0C0F95EA0C0F00F0A7F845
:101B7000A4EB050481EA030E52EA03354FEA013172
:101B800000F088804FEA03334FF0805545EA131385
:101B900043EA12634FEA022245EA111545EA10654D
:101BA0004FEA00260EF000419D4208BF964244F1E4
:101BB000FD0404F5407402D25B084FEA3202B61A03
:101BC00065EB03055B084FEA32024FF480104FF4D7
:101BD000002CB6EB020E75EB030E22BFB61A75464B
:101BE00040EA0C005B084FEA3202B6EB020E75EBDE
:101BF000030E22BFB61A754640EA5C005B084FEA46
:101C00003202B6EB020E75EB030E22BFB61A754612
:101C100040EA9C005B084FEA3202B6EB020E75EB1D
:101C2000030E22BFB61A754640EADC0055EA060EDE
:101C300018D04FEA051545EA16754FEA06164FEA21
:101C4000C30343EA52734FEAC2025FEA1C1CC0D1CD
:101C500011F4801F0BD141EA00014FF000004FF05A
:101C6000004CB6E711F4801F04BF01430020B4F11B
:101C7000FD0C88BFBCF5E06F3FF6AFAEB5EB030CD3
:101C800004BFB6EB020C5FEA500C50F1000041EBD0
:101C9000045170BD0EF0004E4EEA113114EB5C049D
:101CA000C2BFD4EB0C0541EA045170BD41F4801170
:101CB0004FF0000E013C90E645EA060E8DE60CEA78
:101CC000135594EA0C0F08BF95EA0C0F3FF43BAF95
:101CD00094EA0C0F0AD150EA01347FF434AF95EA4C
:101CE0000C0F7FF425AF104619462CE795EA0C0F30
:101CF00006D152EA03353FF4FDAE1046194622E7FD
:101D000050EA410618BF52EA43067FF4C5AE50EAD6
:101D100041047FF40DAF52EA43057FF4EBAE12E7C6
:101D20004FF0FF3C06E000BF4FF0010C02E000BFA7
:101D30004FF0010C4DF804CD4FEA410C7FEA6C5C8A
:101D40004FEA430C18BF7FEA6C5C1BD001B050EA2D
:101D5000410C0CBF52EA430C91EA030F02BF90EA18
:101D6000020F0020704710F1000F91EA030F58BFD7
:101D7000994208BF90422CBFD8176FEAE37040F039
:101D8000010070474FEA410C7FEA6C5C02D150EAD7
:101D9000013C07D14FEA430C7FEA6C5CD6D152EA92
:101DA000033CD3D05DF8040B704700BF8446104657
:101DB00062468C461946634600E000BF01B5FFF756
:101DC000B7FF002848BF10F1000F01BD4DF808ED26
:101DD000FFF7F4FF0CBF012000205DF808FB00BFF7
:101DE0004DF808EDFFF7EAFF34BF012000205DF851
:101DF00008FB00BF4DF808EDFFF7E0FF94BF01209E
:101E000000205DF808FB00BF4DF808EDFFF7CEFF9E
:101E100094BF012000205DF808FB00BF4DF808EDDD
:101E2000FFF7C4FF34BF012000205DF808FB00BFAE
:101E30004A0011D212F5001211D20DD56FF4787349
:101E4000B3EB62520ED44FEAC12343F0004343EA9E
:101E5000505323FA02F070474FF00000704750EAE9
:101E6000013002D14FF0FF3070474FF00000704753
:101E70004FEA4102B2F1E04324BFB3F5001CDCF1AC
:101E8000FE5C0DD901F0004C4FEAC0024CEA5070E4
:101E9000B2F1004F40EB830008BF20F00100704713
:101EA00011F0804F21D113F13872BCBF01F0004016
:101EB000704741F480114FEA5252C2F11802C2F148
:101EC000200C10FA0CF320FA02F018BF40F00100C9
:101ED0004FEAC1234FEAD32303FA0CFC40EA0C007B
:101EE00023FA02F34FEA4303CCE77FEA625307D1B8
:101EF00050EA01331EBF4FF0FE4040F440007047EF
:101F000001F0004040F0FE4040F40000704700BF88
:101F100080F0004002E000BF81F0004142001FBF9E
:101F20005FEA410392EA030F7FEA226C7FEA236CA7
:101F30006AD04FEA1262D2EB1363C1BFD21841409C
:101F400048404140B8BF5B42192B88BF704710F032
:101F5000004F40F4000020F07F4018BF404211F0D5
:101F6000004F41F4000121F07F4118BF494292EA3D
:101F7000030F3FD0A2F1010241FA03FC10EB0C0069
:101F8000C3F1200301FA03F100F0004302D54942F6
:101F900060EB4000B0F5000F13D3B0F1807F06D3A3
:101FA00040084FEA310102F10102FE2A51D2B1F19B
:101FB000004F40EBC25008BF20F0010040EA030090
:101FC0007047490040EB0000013A28BFB0F5000F10
:101FD000EDD2B0FA80FCACF1080CB2EB0C0200FAC6
:101FE0000CF0AABF00EBC25052421843BCBFD04015
:101FF0001843704792F0000F81F4000106BF80F48F
:1020000000000132013BB5E74FEA41037FEA226C51
:1020100018BF7FEA236C21D092EA030F04D092F01C
:10202000000F08BF0846704790EA010F1CBF002050
:10203000704712F07F4F04D1400028BF40F00040AD
:10204000704712F100723CBF00F50000704700F0CD
:10205000004343F0FE4040F4000070477FEA2262F4
:1020600016BF08467FEA23630146420206BF5FEAC5
:10207000412390EA010F40F4800070474FF00003C5
:1020800004E000BF10F0004348BF40425FEA000C8C
:1020900008BF704743F0964301464FF000001CE034
:1020A00050EA010208BF70474FF000030AE000BF8A
:1020B00050EA010208BF704711F0004302D54042C8
:1020C00061EB41015FEA010C02BF8446014600203A
:1020D00043F0B64308BFA3F18053A3F50003BCFA55
:1020E0008CF2083AA3EBC25310DB01FA02FC634402
:1020F00000FA02FCC2F12002BCF1004F20FA02F209
:1021000043EB020008BF20F00100704702F12002FB
:1021100001FA02FCC2F1200250EA4C0021FA02F25C
:1021200043EB020008BF20EADC70704753B94AB99C
:10213000002908BF00281CBF4FF0FF314FF0FF30CF
:1021400000F08CB9ADF1080C6DE904CE00F024F874
:10215000DDF804E0DDE9022304B07047D0B50022C9
:102160000B4B06460F46FFF7C9FBFFF761FE04461F
:10217000FFF74AFB0022074BFFF7C0FB02460B4666
:1021800030463946FFF702FAFFF752FE2146D0BD2E
:102190000000F03D0000F0412DE9F047089E0D469B
:1021A00004468E46002B40F083808A42174647D96A
:1021B000B2FA82F34BB1C3F1200105FA03FE20FA13
:1021C00001F19F4041EA0E0E9C404FEA1748BEFBCA
:1021D000F8FC1FFA87F908FB1CE20CFB09F0210C44
:1021E00041EA024290420AD9BA180CF1FF3180F05C
:1021F0001881904240F21581ACF1020C3A44121A57
:10220000B2FBF8F008FB102200FB09F1A4B244EA8B
:102210000244A14209D93C1900F1FF3280F0038148
:10222000A14240F2008102383C44641A002140EA95
:102230000C401EB10022DC40C6E90042BDE8F08738
:1022400002B9FFDEB2FA82F3002B4FD18D1A0121C1
:102250004FEA124E1FFA82F8B5FBFEFC0EFB1C552E
:1022600008FB0CF0220C42EA0545A84207D97D196B
:102270000CF1FF3202D2A84200F2E98094462D1AF6
:10228000B5FBFEF00EFB105508FB00F8A4B244EAC3
:102290000544A04507D93C1900F1FF3202D2A04500
:1022A00000F2D9801046A4EB080440EA0C40C0E7D5
:1022B0008B4208D9002E00F0B1800021C6E900054C
:1022C0000846BDE8F087B3FA83F100294BD1AB4251
:1022D00002D3824200F2B980841A65EB0303012025
:1022E0009E46002EAAD0C6E9004EA7E79F40C3F144
:1022F0002002D1404FEA174EB1FBFEF01FFA87F8DB
:102300000EFB101124FA02F29D4000FB08FC2A4348
:10231000150C45EA0145AC4504FA03F409D97D19C9
:1023200000F1FF3180F08F80AC4540F28C800238A4
:102330003D44A5EB0C05B5FBFEF10EFB115C01FB6A
:1023400008F995B245EA0C45A94507D97D1901F16F
:10235000FF3274D2A94572D902393D44A5EB090573
:1023600041EA004178E7C1F120078B4022FA07FCDF
:102370004CEA030C25FA07F44FEA1C4EB4FBFEF9B5
:102380001FFA8CF80EFB194420FA07F309FB08FA30
:102390008D401D432B0C43EA0444A24502FA01F28E
:1023A00000FA01F309D91CEB040409F1FF3048D20B
:1023B000A24546D9A9F102096444A4EB0A04B4FB7E
:1023C000FEF00EFB104400FB08FAADB245EA0444EF
:1023D000A24508D91CEB040400F1FF352DD2A2451B
:1023E0002BD90238644440EA0940A0FB0289A4EBDF
:1023F0000A044C45C6464D4619D316D05EB1B3EB20
:102400000E0264EB050404FA07F722FA01F31F43F6
:10241000CC40C6E900740021BDE8F0873146304663
:102420000CE78C46EBE61046FFE64345E6D2B8EBF8
:10243000020E69EB0C050138E0E72846D3E71146A8
:102440008CE78146B9E7084673E7084649E7ACF1EF
:10245000020C3D4413E702383C4424E7704700BFB8
:1024600010B504460448134620B10A46022021460E
:10247000AFF3008010BD00BF000000000A4491428D
:1024800000F1FF3300D1704710B511F8014B9142B4
:1024900003F8014FF9D110BD03460244934200D125
:1024A000704703F8011BF9E738B50D4B04461D686A
:1024B000AB6B7BB91820FEF7CFF90A4A0A4BA86329
:1024C000C0E90023094B012283600B238381002391
:1024D000C0E904230022AB6B1C615A6138BD00BF08
:1024E000040000200E33CDAB34126DE6ECDE0500A7
:1024F000034611F8012B03F8012B002AF9D170478C
:10250000034613F8012B002AFBD1181A0138704733
:102510002100080861000808890008088D000808E3
:1025200000000000556E6578706563746564207303
:10253000656E736F722074797065003A20002028F0
:10254000002900207C20000A48656C6C6F205375C0
:10255000737461696E67696E656572696E67210A79
:1025600000536574757020446F6E65210A00436FD7
:10257000756E74657231005400436F756E746572C8
:102580003200436F756E7465723300436F756E74FD
:10259000657234000000000000000000010108081E
:1025A000D90008080000000000000000B900080879
:1025B000B30008086170700025592D256D2D256424
:1025C0005425483A254D3A2553257A0061736374A2
:1025D000696D65000000000000000000610E080841
:1025E000510E0808530E080800000000000000000B
:1025F000F50E08085B0F0808330F0808C90B080818
:10260000250F0808F70E0808070F0808550F0808D7
:10261000170F0808F10E0808000000000000000075
:102620002B11080821110808171108089110080833
:102630000B110808FF100808F3100808EB10080831
:10264000E1100808D71008089B10080800000000D7
:102650000000000065110808CD110808A91108083C
:10266000C90B08087911080895110808871108088E
:10267000A3110808671108086B1108080000000082
:102680000000000059120808A31208087B1208086D
:102690005B120808831208088B12080893120808B6
:1026A0009B1208080000000000000000D512080876
:1026B000DF120808E9120808F3120808FD120808DA
:1026C0000913080815130808211308082913080816
:1026D000331308083D1308080000000071030808C0
:1026E000D5080808890C0808990C0808D10C0808B6
:1026F0003511080885130808AD140808000000000B
:0827000098FAFF7F01000000C0
:0427080000000000CD
:10270C00CC25080808000020000000000000000094
:10271C0000000000000000000000000000000000AD
:10272C00000000000000000000000000000000009D
:10273C00000000000000000000000000000000008D
:10274C00000000000000000000000000000000007D
:10275C00000000000000000000000000000000006D
:08276C00000000000000000065
:10277400FFFFFFFF00000102030405060708090A22
:102784000B0C0D0E0F101112131415161718191A1D
:082794001B1C1D1E1F20280064
:04279C007856341225
:0400000508080020C7
:00000001FF
